S01700005472616E736D69745F627574746F6E2E73726563C0
S11300000C9434000C9451000C9451000C94510045
S11300100C9451000C9451000C9451000C94510018
S11300200C9451000C9451000C9451000C94510008
S11300300C9451000C9451000C9451000C945100F8
S11300400C9451000C9451000C9451000C945100E8
S11300500C9451000C9451000C9451000C945100D8
S11300600C9451000C94510011241FBECFEFD8E022
S1130070DEBFCDBF11E0A0E0B1E0E0EEF0E002C0F1
S113008005900D92A030B107D9F721E0A0E0B1E0CE
S113009001C01D92A030B207E1F70E9460000C94E9
S11300A06E000C94000083E390E09093C50080936D
S11300B0C40088E08093C10086E08093C200089564
S11300C014B80E945300E6ECF0E098E583B1813067
S11300D0E9F7908383B18130E9F3F8CFF894FFCF47
S9030000FC
