:020000040000FA
:060000000A128A11FC2F18
:100F66007108F3007008F2000310F30CF20C031082
:100F7600F30CF20C7208831203139500CF30F200C3
:100F8600720897057008F20003300310F20DFF3E59
:100F9600031DC82F0310720D3039F3007308970430
:100FA600080083160313071106100C30831203136F
:100FB6009700FF3083160313920004308312031345
:100FC60092000030F000F1000A128A11B3270A12CB
:100FD6008A118312031312156430F0000030F100F9
:100FE6000A128A11B3270A128A11F82F0A128A11D5
:0A0FF600002883010A128A11D42F8B
:00000001FF
