:020000040000FA
:060000000A128A11FC2F18
:100EA40024308316031398009030831203139800A0
:100EB40067308316031399000800F000700883124A
:100EC40003139900652F83160313981C6A2F6B2F45
:100ED400652F6C2F08006E2F831203138C1E732F43
:100EE400742F6E2F752F1A08F0007008F100710826
:100EF4007B2F0800F2008B2F7208840000080A126E
:100F04008A115F270A128A110130F1007108F20771
:100F14008B2F720884000008031D912F922F7E2FBF
:100F2400932F080083160313071387170A128A11D5
:100F340052270A128A119E2F0A128A11B7270A12FF
:100F44008A11033083120313A2000830A100763003
:100F5400A000A00BAB2FA10BAB2FA20BAB2F00005B
:100F64009E2F9E2F0A128A110028FB01FC017C0887
:100F7400803AFF0080307F02031DC22F07307B02BE
:100F8400031CC52FC62FC82FF52FF52F0A128A115F
:100F94006D270A128A11F3007B08743E84007308DB
:100FA40080007B08743E840020300006031DDB2F84
:100FB400DC2FE12F7B08743E84008001F52F013083
:100FC400FB070318FC0A0030FC077C08803AFF008A
:100FD40080307F02031DF02F07307B02031CF32FA8
:100FE400F42FC82FF52F74300A128A117C270A12A5
:0C0FF4008A11080083010A128A11942F50
:00000001FF
