:100000000C9434000C943E000C943E000C943E0082
:100010000C943E000C943E000C943E000C943E0068
:100020000C943E000C943E000C943E000C943E0058
:100030000C943E000C943E000C943E000C943E0048
:100040000C943E000C943E000C943E000C943E0038
:100050000C943E000C943E000C943E000C943E0028
:100060000C943E000C943E0011241FBECFEFD8E04C
:10007000DEBFCDBF0E9440000C945A000C940000DB
:100080008FEF84B915B890EA88E095B92FE33DE089
:1000900043E0215030404040E1F700C0000085B906
:1000A0002FE33DE043E0215030404040E1F700C005
:0800B0000000EBCFF894FFCF34
:00000001FF
