:100000000C9434000C943E000C943E000C943E0082
:100010000C943E000C943E000C943E000C943E0068
:100020000C943E000C943E000C943E000C943E0058
:100030000C943E000C943E000C943E000C943E0048
:100040000C943E000C943E000C943E000C943E0038
:100050000C943E000C943E000C943E000C943E0028
:100060000C943E000C943E0011241FBECFEFD8E04C
:10007000DEBFCDBF0E9440000C9455000C940000E0
:1000800081E084B982E085B980E090E01999FECFE3
:10009000199BFECF01968130910511F4289AF6CF75
:0E00A0008230910599F72898EFCFF894FFCFA2
:00000001FF
