:060000000A128A11122809
:10000800FE00030EF4000408F5000A08F600831247
:1000180003137F08F7000A128A111D280A128A1191
:100028001528F001F101F201F30183010A128A1186
:100038003A280B1D26280130F2070318F30A00306E
:10004800F3070B11413072067304031D2F28F009C2
:10005800F109F201F3017708FF0076088A007508B4
:100068008400740E8300FE0E7E0E090083160313AF
:100078008712073081008B170B178B160B11831211
:1000880003138712701C432883120313871646280C
:00000001FF
