:100000000C9434000C9451000C9451000C94510049
:100010000C9451000C9451000C9451000C9451001C
:100020000C9451000C9451000C9451000C9451000C
:100030000C9451000C9451000C9451000C945100FC
:100040000C9451000C9451000C9451000C945100EC
:100050000C9451000C9451000C9451000C945100DC
:100060000C9451000C94510011241FBECFEFD8E026
:10007000DEBFCDBF11E0A0E0B1E0E0E7F1E002C0FB
:1000800005900D92AE30B107D9F721E0AEE0B1E0B6
:1000900001C01D92AE30B207E1F70E94AC000C9493
:1000A000B6000C9400004098419885B9419A87EABF
:1000B00091E60197F1F700C0000041980895CF93B1
:1000C000DF93EC010E945300CE0182959295907FC0
:1000D0009827807F982799270E945300DF91CF911E
:1000E000089582E090E00E945F0083E390E00E9428
:1000F0005F0082E390E00E945F008CE090E00E944D
:100100005F0086E090E00E945F0081E090E00E9446
:100110005F000895419A83EC99E00197F1F700C0E0
:10012000000041980895CF93DF93EC01409A4198E5
:100130008881882371F085B90E948A00899120E125
:10014000829FC001112485B90E948A008881811193
:10015000F2CFDF91CF9108958FEF87B984B90E94D4
:10016000710080E091E00E949300FFCFF894FFCFF0
:0E01700068656C6C6F6F2070656F706C650059
:00000001FF
