:100000000C9434000C9446000C9483000C9446002D
:100010000C9446000C9446000C9446000C94460048
:100020000C9446000C9446000C9446000C94460038
:100030000C9446000C9446000C9446000C94460028
:100040000C9446000C9446000C9446000C94460018
:100050000C9446000C9446000C9446000C94460008
:100060000C9446000C94460011241FBECFEFD8E03C
:10007000DEBFCDBF21E0A0E0B1E001C01D92A23003
:10008000B207E1F70E946D000C949B000C940000F5
:100090008AB18AB9089581E087B92FE936E891E0FD
:1000A000215030409040E1F700C0000088B92FE9AE
:1000B00036E891E0215030409040E1F700C0000068
:1000C00098B1892788B92FE936E881E0215030407E
:1000D0008040E1F700C00000089581E084B90E94EB
:1000E000480082E08DBB0E944B00809100019091FE
:1000F0000101892B11F47894F6CFF8941092010144
:1001000010920001F0CF1F920F920FB60F921124A0
:100110008F939F9395B181E0892785B981E090E025
:1001200090930101809300019F918F910F900FBEDA
:0A0130000F901F901895F894FFCF70
:00000001FF
