:020000040000FA
:060000000A128A11FC2F18
:100C2800F300162E83160313981C1B2E1C2E162E4B
:100C38001D2E73088312031399001530F2004B30F0
:100C4800F100BE30F000F00B272EF10B272EF20B2F
:100C5800272E00000800003083120313A90000307B
:100C6800A8002530A7008030A6000A128A11F426B1
:100C78000A128A1178300A128A1114260A128A1165
:100C880079300A128A1114260A128A114A2E0A1277
:100C98008A11002883120313A101F31F542E552E25
:100CA800622EF009F109F209F309F00A0319F10AB1
:100CB8000319F20A0319F30AA101A10AF71F652E05
:100CC800662E762EF409F509F609F709F40A0319D0
:100CD800F50A0319F60A0319F70A0130F80078082B
:100CE800A106762E0030A5000030A4000030A30035
:100CF8000030A20073087204710470040319852E71
:100D0800862ED92EA001A00A972E0130F8000310D4
:100D1800F00DF10DF20DF30DF80B8B2E0130F800EC
:100D28007808A007972EF31F9A2E9B2E892E9D2EAA
:100D38009D2E0130F8000310A20DA30DA40DA50DE2
:100D4800F80B9F2E73087702031DB42E72087602E3
:100D5800031DB42E71087502031DB42E70087402A9
:100D6800031CB72EB82EC82E7008F4027108031C95
:100D7800710FF5027208031C720FF6027308031C48
:100D8800730FF7022214C82E01300310F30CF20C73
:100D9800F10CF00CFF3E031DC92E0130A002031D0B
:100DA800D62ED72E9D2ED92ED92E21080319DD2E09
:100DB800DE2EEA2EA209A309A409A509A20A03198D
:100DC800A30A0319A40A0319A50AEA2E2508F300A1
:100DD8002408F2002308F1002208F000F32E08008E
:100DE800831203132608AA002708AB002808AC00C2
:100DF8002908AD0006300310AA0DAB0DAC0DAD0DE2
:100E0800FF3E031DFF2E2D08F3002C08F2002B08CF
:100E1800F1002A08F0000030AE002430AF00F430B2
:100E2800B0000030B1002608B2002708B300280837
:100E3800B4002908B50006300310B20DB30DB40D87
:100E4800B50DFF3E031D202FB209B309B409B5093A
:100E5800B20A0319B30A0319B40A0319B50A320806
:100E6800AE0733080318330F3A2F3B2FAF07340868
:100E78000318340F402F412FB00735080318350ADF
:100E8800B1073108F7003008F6002F08F5002E08E2
:100E9800F4000A128A114E260A128A117308FC00FD
:100EA8007208FB007108FA007008F900FC1B6D2F2E
:100EB8007C08031D6E2F7B08031D6E2F01307A02FC
:100EC800031D6A2F00307902031D6A2F031C6D2F42
:100ED8006E2FD82F831203132608AA002708AB0009
:100EE8002808AC002908AD0004300310AA0DAB0D8A
:100EF800AC0DAD0DFF3E031D792F2D08F3002C0816
:100F0800F2002B08F1002A08F0000030AE0024306F
:100F1800AF00F430B0000030B1002608B200270856
:100F2800B3002808B4002908B50004300310B20D36
:100F3800B30DB40DB50DFF3E031D9A2FB209B309C9
:100F4800B409B509B20A0319B30A0319B40A031993
:100F5800B50A3208AE0733080318330FB42FB52F7C
:100F6800AF0734080318340FBA2FBB2FB007350862
:100F78000318350AB1073108F7003008F6002F08C2
:100F8800F5002E08F4000A128A114E260A128A1158
:100F98007308FC007208FB007108FA007008F90079
:100FA800831603131815D82FFC1BEC2F7C08031D80
:100FB800EB2F7B08031DEB2F01307A02031DE82F6E
:100FC80000307902031DE82F0318EB2FEC2FFB2FBD
:100FD8007908831603139900981683120313981738
:100FE80018168316031307138717FB2FFB2F080008
:080FF80083010A128A112F2E59
:02400E003B3F36
:00000001FF
