:060000000A128A11F22F22
:100E440030343034243083160313980090308312E6
:100E54000313980067308316031399000800F40005
:100E6400740884000008031908007408840000084A
:100E74000A128A11B7270A128A110130F300730883
:100E8400F407322F831603138601071387170A12F8
:100E94008A1124270A128A110A128A115A270A125D
:100EA4008A1175300A128A1131270A128A11592FB0
:100EB4000230F0000030F1000A128A117D270A1274
:100EC4008A110130F0000030F1000A128A117D27E6
:100ED4000A128A110C30F0000030F1000A128A1153
:100EE4007D270A128A118030F0000030F1000A12C6
:100EF4008A117D2708000F30F20072088312031351
:100F04008605061006117008F039F200720886048E
:100F140006153430F300F130F200F20B8F2FF30B8F
:100F24008F2F942F8312031306110F30F2007208CF
:100F340086057008F20003300310F20DFF3E031D16
:100F44009E2F0310720DF039F30073088604061502
:100F54003430F300F130F200F20BAE2FF30BAE2F6E
:100F6400B32F8312031306110800F2000F30F000B0
:100F74007008831203138605061406117208F039EB
:100F8400F0007008860406153430F100F130F000EA
:100F9400F00BCA2FF10BCA2FCF2F831203130611A4
:100FA4000F30F000700886057208F000033003105B
:100FB400F00DFF3E031DD92F0310700DF039F10021
:100FC4007108860406153430F100F130F000F00B9E
:100FD400E92FF10BE92FEE2F8312031306110800FA
:100FE4000A128A1122270A128A11F5000A128A119A
:0C0FF4002327F60083010A128A11442F03
:00000001FF
