:100000000C9434000C9451000C9451000C94510049
:100010000C9451000C9451000C9451000C9451001C
:100020000C9451000C9451000C9451000C9451000C
:100030000C9451000C9451000C9451000C945100FC
:100040000C9451000C9451000C9451000C945100EC
:100050000C9451000C9451000C9451000C945100DC
:100060000C9451000C94510011241FBECFEFD8E026
:10007000DEBFCDBF11E0A0E0B1E0E2E5F1E002C0FB
:1000800005900D92A831B107D9F721E0A8E1B1E0C0
:1000900001C01D92AC31B207E1F70E94A2000C949E
:1000A000A7000C94000083E390E09093C500809338
:1000B000C40088E88093C10086E08093C200089560
:1000C000E2E0F1E001900020E9F73197E250F140E1
:1000D000F0931B01E0931A01E0ECF0E08081807264
:1000E0008083882371F1209118013091190180914A
:1000F0001A0190911B018217930754F41092190171
:100100001092180182E091E0909301018093000128
:10011000E0910001F091010180818093C6008091FF
:1001200000019091010101969093010180930001DB
:100130008091180190911901019690931901809373
:10014000180108950E9453000E946000FDCFF894AA
:02015000FFCFDF
:10015200020168656C6C6F206D79206E616D65209F
:08016200697320616A617900F4
:00000001FF
