:100000000C9434000C9449000C9449000C94490061
:100010000C9449000C9449000C9449000C9449003C
:100020000C9449000C9449000C9449000C9449002C
:100030000C9449000C9449000C9449000C9449001C
:100040000C9449000C9449000C9449000C9449000C
:100050000C9449000C9449000C9449000C944900FC
:100060000C9449000C94490011241FBECFEFD8E036
:10007000DEBFCDBF11E0A0E0B1E0E8E2F1E002C0F8
:1000800005900D92A031B107D9F70E947E000C9423
:1000900092000C9400004098419885B9419A87EAF3
:1000A00091E60197F1F700C000004198089581E0C2
:1000B00090E00E944B0088E390E00E944B008CE0AF
:1000C00090E00E944B000895419A83EC99E00197DB
:1000D000F1F700C0000041980895CF93DF93EC0141
:1000E000409A9881992339F0219695B90E9464002D
:1000F00099919111FACFDF91CF910895CF93DF932A
:100100001F92CDB7DEB78FEF87B984B90E94570031
:10011000198280E091E00E946D00CE0101960E945C
:080120006D00FFCFF894FFCF42
:1001280073616C61616820706F7474616E2E2E004B
:00000001FF
