S02300007472616E736D697373696F6E5F636861725F696E746572727570742E737265638E
S11300000C9434000C943E000C943E000C943E007E
S11300100C943E000C943E000C943E000C943E0064
S11300200C943E000C943E000C943E000C943E0054
S11300300C943E000C943E000C943E000C943E0044
S11300400C943E000C943E000C943E000C943E0034
S11300500C9466000C943E000C943E000C943E00FC
S11300600C943E000C943E0011241FBECFEFD8E048
S1130070DEBFCDBF0E9453000C9482000C9400009C
S113008083E390E09093C5008093C40088E080935C
S1130090C10086E08093C2000895E1ECF0E0808125
S11300A08064808308950E94400078940E944D00EB
S11300B0E6ECF0E080E72FE936E891E021503040AB
S11300C09040E1F700C000008083F5CF1F920F92AB
S11300D00FB60F9211242F938F939F9381E48093F3
S11300E0C6002FE986E891E0215080409040E1F776
S11300F000C000009F918F912F910F900FBE0F9021
S10B01001F901895F894FFCF3D
S9030000FC
