:100000000C9434000C9446000C9446000C9446006A
:100010000C9446000C9446000C9446000C94460048
:100020000C9446000C9446000C9446000C94460038
:100030000C9446000C9446000C9446000C94460028
:100040000C949D000C9446000C9446000C944600C1
:100050000C9446000C9446000C9446000C94460008
:100060000C9446000C94460011241FBECFEFD8E03C
:10007000DEBFCDBF21E0A0E0B1E001C01D92A53000
:10008000B207E1F70E946C000C945C020C94000033
:1000900083E390E09093C5008093C40088E180934F
:1000A000C10086E08093C200089583E884BD85E0A6
:1000B00085BD08956091C6006093040170E080E002
:1000C00090E00E94630160930001709301018093AE
:1000D00002019093030108958FEF84B915B880E46D
:1000E0008AB90E9448000E94550080E090E0A0E29A
:1000F000B1E48093000190930101A0930201B093B9
:10010000030189E187BD0E945A0020E030E040E20F
:1001100051E4609100017091010180910201909180
:1001200003010E94C00020E030E04FE753E40E944A
:10013000EF010E94320167BDE6CF1F920F920FB60A
:100140000F9211248F939F93AF93BF9380E090E021
:10015000A0E2B1E48093000190930101A093020119
:10016000B093030189E187BD85B1809585B9BF91C1
:10017000AF919F918F910F900FBE0F901F90189588
:100180000E94D4000C94B5010E94AE0158F00E9468
:10019000A70140F029F45F3F29F00C949E01511112
:1001A0000C94E9010C94A4010E94C60168F3992300
:1001B000B1F3552391F3951B550BBB27AA27621763
:1001C0007307840738F09F5F5F4F220F331F441F70
:1001D000AA1FA9F335D00E2E3AF0E0E832D09150A4
:1001E0005040E695001CCAF72BD0FE2F29D0660F91
:1001F000771F881FBB1F261737074807AB07B0E8D4
:1002000009F0BB0B802DBF01FF2793585F4F3AF0D9
:100210009E3F510578F00C949E010C94E9015F3FDC
:10022000E4F3983ED4F3869577956795B795F7955F
:100230009F5FC9F7880F911D9695879597F9089547
:10024000E1E0660F771F881FBB1F621773078407E3
:10025000BA0720F0621B730B840BBA0BEE1F88F7F2
:10026000E09508950E94CE0188F09F5798F0B92F2D
:100270009927B751B0F0E1F0660F771F881F991FDB
:100280001AF0BA95C9F714C0B13091F00E94E80194
:10029000B1E008950C94E801672F782F8827B85FA4
:1002A00039F0B93FCCF3869577956795B395D9F733
:1002B0003EF490958095709561957F4F8F4F9F4F3D
:1002C0000895E89409C097FB3EF490958095709549
:1002D00061957F4F8F4F9F4F9923A9F0F92F96E992
:1002E000BB279395F695879577956795B795F11107
:1002F000F8CFFAF4BB0F11F460FF1BC06F5F7F4FA4
:100300008F4F9F4F16C0882311F096E911C07723B5
:1003100021F09EE8872F762F05C0662371F096E8BE
:10032000862F70E060E02AF09A95660F771F881F8D
:10033000DAF7880F9695879597F9089597F99F674B
:1003400080E870E060E008959FEF80EC089500245D
:100350000A941616170618060906089500240A942A
:1003600012161306140605060895092E0394000CB0
:1003700011F4882352F0BB0F40F4BF2B11F460FF3F
:1003800004C06F5F7F4F8F4F9F4F089557FD905868
:10039000440F551F59F05F3F71F04795880F97FB49
:1003A000991F61F09F3F79F0879508951216130603
:1003B0001406551FF2CF4695F1DF08C01616170632
:1003C0001806991FF1CF8695710561050894089567
:1003D000E894BB2766277727CB0197F908950E94F9
:1003E00002020C94B5010E94A70138F00E94AE01F0
:1003F00020F0952311F00C949E010C94A40111247B
:100400000C94E9010E94C60170F3959FC1F3950F0A
:1004100050E0551F629FF001729FBB27F00DB11D88
:10042000639FAA27F00DB11DAA1F649F6627B00D18
:10043000A11D661F829F2227B00DA11D621F739F01
:10044000B00DA11D621F839FA00D611D221F749F0F
:100450003327A00D611D231F849F600D211D822F56
:10046000762F6A2F11249F5750409AF0F1F088237D
:100470004AF0EE0FFF1FBB1F661F771F881F9150AA
:100480005040A9F79E3F510580F00C949E010C94BA
:10049000E9015F3FE4F3983ED4F38695779567953D
:1004A000B795F795E7959F5FC1F7FE2B880F911DD4
:0C04B0009695879597F90895F894FFCF72
:00000001FF
