:060000000A128A11FC2F18
:100E820024308316031398009030831203139800C2
:100E92006730831603139900080083160313860133
:100EA200071387170A128A1141270A128A110A1296
:100EB2008A1164270A128A1168300A128A11C1271C
:100EC2000A128A1100280230F0000030F1000A12E2
:100ED2008A1187270A128A110130F0000030F100CE
:100EE2000A128A1187270A128A110C30F000003088
:100EF200F1000A128A1187270A128A118030F00043
:100F02000030F1000A128A11872708000F30F20020
:100F12007208831203138605061006117008F03951
:100F2200F2007208860406153430F300F130F20044
:100F3200F20B992FF30B992F9E2F83120313061195
:100F42000F30F200720886057008F20003300310B9
:100F5200F20DFF3E031DA82F0310720DF039F300AE
:100F62007308860406153430F300F130F200F20BF8
:100F7200B82FF30BB82FBD2F8312031306110800ED
:100F8200F2000F30F0007008831203138605061476
:100F920006117208F039F000700886040615343024
:100FA200F100F130F000F00BD42FF10BD42FD92F38
:100FB2008312031306110F30F000700886057208C1
:100FC200F00003300310F00DFF3E031DE32F03106A
:100FD200700DF039F1007108860406153430F10005
:100FE200F130F000F00BF32FF10BF32FF82F8312F7
:0E0FF20003130611080083010A128A114E2F04
:00000001FF
